:020000040800F2
:10000000000C002031020008A51000089D10000817
:10001000A1100008350F00087F1200080000000042
:10002000000000000000000000000000D3100008E5
:10003000390F000800000000D1100008D51000089A
:100040004B0200084B0200084B0200084B0200085C
:100050004B0200084B0200083D0F0008AD0F0008DE
:10006000ED0F0008EF0F0008F10F00084B02000829
:100070004B0200084B0200084B0200084B0200082C
:100080004B0200084B0200084B0200084B0200081C
:100090004B0200084B0200084B0200083110000818
:1000A0004B0200084B0200084B0200084B020008FC
:1000B0004B0200084B0200084B0200084B020008EC
:1000C0004B0200084B0200084B0200084B020008DC
:1000D0004B0200085D110008ED1100087D120008B8
:1000E0007D0F00084B0200084B0200084B0200087D
:1000F0004B0200084B0200084B0200084B020008AC
:100100004B0200084B0200084B0200084B0200089B
:10011000591100085B1100084B0200084B0200084F
:100120004B0200084B0200084B0200084B0200087B
:1001300000F002F800F06CF80AA090E8000C82448D
:100140008344AAF10107DA4501D100F061F8AFF26A
:10015000090EBAE80F0013F0010F18BFFB1A43F0A5
:10016000010318477C2C00009C2C00000A444FF02F
:10017000000C10F8013B13F0070408BF10F8014B06
:100180001D1108BF10F8015B641E05D010F8016B4B
:10019000641E01F8016BF9D113F0080F1EBF10F8AF
:1001A000014BAD1C0C1B09D16D1E58BF01F801CBD2
:1001B000FAD505E014F8016B01F8016B6D1EF9D555
:1001C0009142D6D37047000000230024002500266A
:1001D000103A28BF78C1FBD8520728BF30C148BFAA
:1001E0000B607047782900F0B380732900F02582F6
:1001F000002070471FB502F0CAFD9DE8030000F023
:100200006BFC00F05DFA1FBD10B500F0C2FA10BD26
:1002100000F025FB1146FFF7EDFF01F0B5FB00F004
:1002200029FC03B4FFF7F0FF03BC00F0E7FD00007A
:100230000948804709480047FEE7FEE7FEE7FEE77A
:10024000FEE7FEE7FEE7FEE7FEE7FEE704480549B6
:10025000054A064B70470000DD1000083101000818
:1002600000040020000C00200008002000080020EE
:100270000FB4044910B503AA029800F0E3F910BCCA
:100280005DF814FBF80200200FB41CB5074B06AA5A
:100290007B4469460090059800F0A5F90020694666
:1002A00000F0B4F91CBC5DF814FB000079030000F9
:1002B00070B5044685690068C10601D5302600E0A6
:1002C0002026C00707D070BDD4E9012130469047F1
:1002D000206A401C20626D1EF6D570BD70B50446C4
:1002E00085690078C00707D170BDD4E901212020BD
:1002F0009047206A401C20626D1EF6D570BD70B517
:100300000C460546012A05D02878800600D5EA6902
:10031000002302E0012305E05B1C934202D2E05C73
:100320000028F9D1A869E618C01AA861286A1844FB
:1003300028622846FFF7BCFF04E0D5E9012114F844
:10034000010B9047B442F8D32846FFF7C7FF70BDB2
:1003500070B504460D4621461068AFF30080218831
:10036000090502D50F4A7A4402E00E4A7A440E3259
:10037000002104F1240305E000F00F060009965D5A
:100380005E54491C0028F7D120780023000704D5CB
:10039000702D02D009B1022311322046BDE8704011
:1003A00000F0C3B82E2A00002DE9F05F894604460C
:1003B0004FF0000ADFF824B1FB44C0F820A020462B
:1003C000E168884700287DD0252806D0D4E901219E
:1003D0009047206A401C2062F1E700255F462046D6
:1003E000E16888472028064607DB312E05D2B81978
:1003F00010F8200C08B10543F1E7A80701D525F056
:100400000405C4F81CA00027C4F818A02A2E09D09F
:10041000304600F036FF38B304EB8708303EC8F8AA
:10042000186019E059F8041B204604EB870291611B
:10043000E1688847012F064618D1E069002820DAD4
:1004400025F020051DE0D8F8180000EB800006EB31
:1004500040003038C8F818002046E1688847064652
:1004600000F00FFF0028EED1012F0AD02E2E08D168
:100470002046E16888477F1C0646022F45F020058C
:10048000C4DBA069002803DA404245F00105A06101
:10049000E80701D025F01005A6B1A6F14100192802
:1004A00002D8203645F400654A463146204625608C
:1004B0004D46FFF797FE60B1012807D0ED1D25F0EE
:1004C000070000E007E000F1080978E705F10409FA
:1004D00075E730467AE7206ABDE8F09F042A0000FD
:1004E0004FF000020429C0F0128010F0030C00F05D
:1004F000BD80CCF1040CBCF1020F18BF00F8012B39
:10050000A8BF20F8022BA1EB0C0100F0AFB85FEA06
:10051000C17C24BF00F8012B00F8012B48BF00F874
:10052000012B70477047704770472DE9F0470D4623
:1005300099469246044600F124080168880604D5CD
:10054000E06921F01001216000E00120A84201DDF6
:10055000471B00E00027A1697A1902EB0900081A7D
:10056000A0612078C00602D42046FFF7A1FE002635
:1005700008E0D4E901211AF806009047206A401CDF
:10058000761C20624E45F4DB2078C0060AD5204652
:10059000FFF78EFE06E0D4E9012130209047206A63
:1005A000401C2062381EA7F10107F4DC07E0D4E903
:1005B000012118F805009047206A401C2062281E7F
:1005C000A5F10105F3DC2046FFF788FE2078000640
:1005D00002D50220BDE8F0870120FBE701694A1C33
:1005E00002610878704700B58FB0CDE90131002174
:1005F000059105497944CDE9031011466846FFF796
:10060000D3FE0FB000BD0000E5FFFFFF0A6802F84F
:10061000010B0A60704710B5436913B1AFF3008056
:1006200001E0FFF76CFE012010BD127800F12401FB
:100630000A7000224A700122EDE711684FF0FF3284
:10064000E9E70000074B70B50D467B44FFF7CBFF91
:100650000446284600F02FF810B14FF0FF3070BD6F
:10066000204670BDA71100004FF0000200B51346F0
:1006700094469646203922BFA0E80C50A0E80C50C2
:10068000B1F12001BFF4F7AF090728BFA0E80C5073
:1006900048BF0CC05DF804EB890028BF40F8042B6C
:1006A00008BF704748BF20F8022B11F0804F18BFD9
:1006B00000F8012B7047007B00F0800070470000BD
:1006C00010B542485421FFF7CFFF41485421FFF7AE
:1006D000CBFF40485421FFF7C7FF3F493B483C4A06
:1006E0003F4B08603D490A603A491960531C036555
:1006F000481C1065012008653B48344A39A17844FC
:1007000000F01CF920B9384878440A3800F0BBF9E9
:1007100037482F4A35A1784400F010F920B9344801
:1007200078440A3800F0AFF932482A4A2FA17844B9
:1007300000F004F920B92F4878440A3800F0A3F9F2
:1007400040232248DC000021224600F0D4F820B1EA
:1007500025487844543800F096F91D482246402335
:10076000002100F0C8F820B121487844543800F046
:100770008AF9184822461023002100F0BCF800280E
:1007800006D01C487844BDE81040563800F07BB9CC
:1007900010BD104870B5006D20F001040B4800F04A
:1007A00043F90B4800F040F90A4800F03DF909E030
:1007B000206D20F00105204600F036F9204600F0BB
:1007C00073F82C46002CF3D170BD0000A402002069
:1007D000F80200204C0300209C010020A001002012
:1007E000A401002072000000CF2600007700000066
:1007F000BB260000A72600000EB5CDE9000100F0E1
:10080000DDFA029069460120ABBE0EBD08B569460F
:1008100000900220ABBE08BD1FB58DE807006946F9
:100820000520ABBE04B010BD1FB58DE80F006946B2
:100830000620ABBEF6E708B5694600900920ABBEBE
:1008400008BD1CB5CDE9000169460A20ABBE1CBD40
:10085000704708B5694600900C20ABBE08BD7546D0
:1008600000F018F9AE4605006946534620F007002F
:10087000854618B020B5FFF7E9FCBDE820404FF0F1
:1008800000064FF000074FF000084FF0000B21F07A
:100890000701AC46ACE8C009ACE8C009ACE8C00947
:1008A000ACE8C0098D46704770B50446051F00F0DE
:1008B000F7F80068002C14BF446870BD002C18BF06
:1008C000AC423CBF20466468F8D301680A18AA42CB
:1008D00018BF456003D12A680546114401602868A5
:1008E0004119A1421CBF6C6070BD616869602168DC
:1008F0000844286070BD70B5C468A50713D06502B0
:1009000011D4B2F5807F09D0B2F5007F06D0B2F5E0
:10091000806F08D1012300F1240106E05D1E6FF015
:100920007F46B54201D3012070BD0161C3614160C2
:1009300024F470611143C160002070BD2DE9F041C5
:100940000C4607461646104600F06EF82078611CEB
:1009500061280AD0722802D077283CD102E0012514
:10096000002405E00225042402E0082448F20205E0
:1009700011F8010B2B2806D0622809D011F8010CC0
:1009800074280AD00BE045F0030544F00204EFE7B9
:1009900045F0040544F00104EAE744F01004384649
:1009A0002146FFF729FF411C15D0002131617160FC
:1009B0004FF40071F560F1617061200704D5304695
:1009C0000222002100F0E6F8306D40F001003065B1
:1009D0003046BDE8F0810020FBE72DE9F0410D46EF
:1009E0000646104C206DC10704D0410804D020F009
:1009F0000104F7E722460EE0542000F09CF80700BF
:100A00000ED0206D47F0010108435421206538467F
:100A1000FFF72AFE3A4629463046BDE8F0418DE709
:100A20000020D6E7A40200202DE9F04704464FF04D
:100A300000094FF0FF37C568D4E90486A80707D03E
:100A4000204600F057F93046FFF7E0FE002802DAB2
:100A50003846BDE8F087280502D54046FFF724FF59
:100A60004C212046FFF700FE206D20F0010020659C
:100A70004846EEE710B50446AFF300802046BDE8D7
:100A80001040FFF7CEBB10B500F07EF9BDE8104076
:100A900000F074B900487047A003002070470000C0
:100AA00000487047A80300207047704770477047A0
:100AB00038B504460A4600206946AFF30080002896
:100AC00008BF38BD02460099204600F0A4F9012075
:100AD00038BD012000F0F3B9F8B5AFF3008005464A
:100AE00000200C46102000BF0646A819A0420DD9D0
:100AF000324669460020AFF30080070008BF00F0CF
:100B0000DEF90098A04218BF0546C419FFF7C8FFD8
:100B100005600746F01D20F007004619284600F042
:100B200073F9B44208BFF8BDA21B31463868BDE86E
:100B3000F84000F070B970B50646FFF7B1FF0568E0
:100B400006F10B0020F00704B4429CBF002070BDEA
:100B50002B466A68BAB11068A04210D304F10801AC
:100B600088423CBF5068586007D3516810194160F3
:100B70001168091B016058601460101D70BD134698
:100B80005268002AE7D121462846FFF791FF002846
:100B9000DED170BD2DE9F041044616460D46476989
:100BA000007B80072ED03846FFF745FE50BB3EB392
:100BB000012E02D0022E25D104E0204600F045F996
:100BC00005441DE03846FFF744FEE168002841F087
:100BD0001001E16005DA204600F058F80120BDE878
:100BE000F081C9030BD56268E16A914200D81146D1
:100BF000A26911442269891A814200DD0846054430
:100C0000002D01DA0220EAE7E16A6068E2688142C9
:100C100006D29103E06203D522F4003141F01002C4
:100C2000A6690027AE4213DCE16A814201D90B4676
:100C300000E0034603EB060C2369ACEB030CAC4568
:100C400006DD814201D98C4600E084469C4505D1F1
:100C5000A760276042F02000A5620DE0AD1BE669A9
:100C6000AE1B8142A66000D90846C01A281A20602F
:100C70005819606022F0200003490840E06000201D
:100C800084F84870ABE70000BFCFD7FFC16821F4FC
:100C9000001141F08001C160002181600160704756
:100CA0002DE9F047814614460E464FF0FF38324892
:100CB000D5685769054209D03846A169FFF7C1FDDB
:100CC000002811DB2C48C0430540E5602B46324626
:100CD00049463846FFF7A0FDA16920F00042B21A4C
:100CE00011440028A16103D02046FFF7CFFF404602
:100CF000BDE8F08770B504460569C06A616888423E
:100D000000D80846E16821F42011E160C90312D53A
:100D1000A84208D02246411B2846FFF7C1FF10B168
:100D20004FF0FF3070BD0020E562C4E90150E0687B
:100D300020F48030E060002070BD10B50446C0682B
:100D400020F02000E060A16AA06988420DD0204612
:100D5000FFF7D0FFE06820F4405040F01000E06062
:100D6000A06AA0612069E062606044F24001E0682E
:100D70008843E06010BD000010000200002801D090
:100D800000F03CB87047000010B5014602A000F02A
:100D90007DF8012010BD000053494752545245448C
:100DA0003A2052656469726563743A2063616E2704
:100DB00074206F70656E3A200000000010B5431C6F
:100DC00002E010F8011B71B18107FAD14FF0013236
:100DD00002C88C1A8C4314EAC211F9D0C01A0A0650
:100DE00003D0C01E10BDC01A10BD0A0401D0801E61
:100DF00010BD0902FCD0401E10BD000001491820A2
:100E0000ABBEFEE72600020000210160C0E9011030
:100E1000704710207047034640688C46002818BF72
:100E200088423CBF03464068F8D31868184488429B
:100E300007D00CF1030020F00700001D411A521AE0
:100E40000146081D0A60FFF72FBD10B50146C268B4
:100E5000900703D0900607D5886A0AE000F03EF8B4
:100E600001210160881E10BD8B69486818440B6918
:100E7000C01A91F848301BB191F84910401A10BDC2
:100E80001103FCD50028FADD401E10BD70B50546E3
:100E90000C460A2000E06D1C00F018F835B12878E7
:100EA0000028F8D102E0641C00F010F814B120789A
:100EB0000028F8D1BDE870400A2000F007B810B54E
:100EC00000F010F8BDE81040FFF758BF08B56946BC
:100ED0008DF800000320ABBE08BD0000004870473D
:100EE000A003002010B5012805D0002103A0FFF7C2
:100EF000CDFF012010BD09A1F8E70000534947527A
:100F0000544D454D3A204F7574206F6620686561D9
:100F100070206D656D6F7279000000003A204865A1
:100F20006170206D656D6F727920636F727275707C
:100F30007465640000BFFEE77047000010B5012033
:100F400000F046FC90B10121094800F015FD10B1F8
:100F50000121084881710121074800F00DFD10B101
:100F6000012104480173012000F02CFC10BD000099
:100F7000000C0140A80100200008014010B54FF40A
:100F8000005000F025FC60B14FF40051054800F01E
:100F9000F3FC10B10121044881724FF4005000F0BD
:100FA00011FC10BD00100140A801002010B5022066
:100FB00000F00EFC90B10221094800F0DDFC10B1F8
:100FC0000120084988700221074800F0D5FC10B1C3
:100FD00001210448C171022000F0F4FB10BD0000A3
:100FE00000080140A8010020000C01407047704734
:100FF00010B5102000F0ECFB90B11021094800F072
:10100000BBFC10B101210848C1701021074800F055
:10101000B3FC10B1012104480171102000F0D2FB93
:1010200010BD0000000C0140A8010020001001408C
:1010300010B5202000F0CCFB50B12021144800F066
:101040009BFC10B1012113480172202000F0BAFB73
:10105000402000F0BDFB50B140210F4800F08CFC57
:1010600010B101210B484172402000F0ABFB802001
:1010700000F0AEFB50B18021074800F07DFC10B1BC
:1010800001210448C172802000F09CFB10BD0000CB
:10109000000C0140A80100200008014000BFFEE74D
:1010A00000BFFEE77047000010B5002807DA0A0706
:1010B000140E054A00F00F031B1FD45403E00A0767
:1010C000130E024A135410BD18ED00E000E400E0D6
:1010D0007047704710B500F0FFF910BD08B51B4808
:1010E000006840F47000194908601948006840F031
:1010F0000100174908600846406840F080004860D9
:101100000020009002E00098401C009044F620610E
:1011100000988842F7D30E48406820F003000C493D
:101120004860084600680B490840094908604FF4C8
:101130001F0088600846006820F4802008600020B6
:101140004860C86200F040FE08BD000088ED00E085
:1011500000100240FFFFF6FE7047704710B51F49B0
:101160001F4801F0D9F8C8B11D4801F055F8C1B2C7
:101170001C48B0F85640601C82B21A48A0F85620AD
:10118000343001553438B0F8561090F8540081428C
:1011900004D140F20531124801F0A4F81249104878
:1011A00001F0BAF8C0B10F4890F83340601CC2B2E9
:1011B0000C4880F833201230015D094801F031F805
:1011C000084890F8331090F83200814204D140F280
:1011D0000731034801F086F810BD00000503050043
:1011E00000380140A80100200703070010B51F497F
:1011F0001F4801F091F8C8B11D4801F00DF8C1B2C7
:101200001C48B0F89E40601C82B21A48A0F89E208C
:101210007C3001557C38B0F89E1090F89C008142DB
:1012200004D140F20531124801F05CF8124910482F
:1012300001F072F8C0B10F4890F87B40601CC2B258
:101240000C4880F87B205A30015D094800F0E9FF26
:10125000084890F87B1090F87A00814204D140F25F
:101260000731034801F03EF810BD000005030500FA
:1012700000440040A801002007030700704700BF9A
:10128000FEE730380A2801D201207047002070475D
:10129000816841F00801816000BF816801F00801A8
:1012A0000029FAD1816841F00401816000BF8168A2
:1012B00001F004010029FAD1704730B5012902D0AC
:1012C00002291AD10CE0C36A23F47003C362C36A13
:1012D000541E4FF4700505EA04542343C3620DE025
:1012E000836B23F440138363836B541E4FF44015C8
:1012F00005EA04542343836300E000BF00BF30BD10
:1013000021B1826842F40062826003E0826822F4C4
:10131000006282607047816841F48071816070472B
:10132000816801F0010119B9816841F00101816012
:10133000704772B101F001031BB1836843F480135D
:10134000836001F0020393B1836843F40043836038
:101350000DE001F001031BB1836823F48013836067
:1013600001F002031BB1836823F4004383607047DC
:10137000012902D0022910D107E0836823F46023F9
:10138000836083681343836008E0836823F4E04349
:10139000836083681343836000E000BF00BF704731
:1013A0000549096821F47021034A11601146096852
:1013B000014311607047000004240140F0B51D4650
:1013C00006290CD2436B01EB81071F26BE40B343B5
:1013D00001EB810602FA06F63343436322E00C294F
:1013E0000ED2036B8E1F06EB86071F26BE40B3434B
:1013F0008E1F06EB860602FA06F63343036311E0FE
:1014000010290FD2C36AA1F10C0606EB86071F262E
:10141000BE40B343A1F10C0606EB860602FA06F6BF
:101420003343C3620A2A0CD2046902EB420707263F
:10143000BE40B44302EB420605FA06F634430461AB
:1014400011E0122A0FD2C468A2F10A0606EB460781
:101450000726BE40B443A2F10A0606EB460605FA8B
:1014600006F63443C460F0BDAAB101F480731BB129
:10147000436843F48073436001F480631BB14368A5
:1014800043F48063436001F00203CBB1836843F00F
:101490000203836014E001F480731BB1436823F4FA
:1014A0008073436001F480631BB1436823F480635D
:1014B000436001F002031BB1836823F002038360E1
:1014C000704700000349086000BF0249096800290D
:1014D000FBD17047000000200448006820B1034899
:1014E0000068401E014908607047000000000020AD
:1014F00070B505460C462146284600F0FBF808B9B1
:1015000000BFFEE704EB8400810005F108004058AD
:1015100040F0010104EB8400820005F108008150D5
:1015200070BD70B505460C462146284600F0E2F82D
:1015300008B900BFFEE704EB8400810005F1080054
:10154000405840F0200104EB8400820005F10800BF
:10155000815070BD70B504460D462946204600F006
:10156000C9F808B900BFFEE705EB8500810004F16A
:101570000800405820F0010105EB8500820004F1CD
:1015800008008150002105EB8500820004F108006D
:10159000815005EB8500820004F10C00815005EBC1
:1015A0008500820004F11000815005EB8500820067
:1015B00004F1140081506068AA000F219140084393
:1015C000606070BD2DE9F04104460D46164629467F
:1015D000204600F08FF808B900BFFEE705EB850054
:1015E000820004F110003168815005EB8500820013
:1015F00004F11400B1688150308A81B205EB850096
:10160000820004F10C00815005EB8500810004F19B
:101610000800475827F47C57F168706808437169DF
:101620000843074305EB8500810004F1080047509B
:10163000307E01280ED105EB8500810004F1080001
:10164000405840F0400105EB8500820004F108009D
:1016500081500DE005EB8500810004F10800405841
:1016600020F0400105EB8500820004F10800815064
:10167000707E01280ED105EB8500810004F1080081
:10168000405840F0800105EB8500820004F108001D
:1016900081500DE005EB8500810004F10800405801
:1016A00020F0800105EB8500820004F108008150E4
:1016B000B07E70B905EB8500810004F10800405848
:1016C00020F0100105EB8500820004F10800815034
:1016D0000DE005EB8500810004F10800405840F062
:1016E000100105EB8500820004F108008150BDE87F
:1016F000F081000002460120034B9A4202D10429E6
:1017000000DD0020704700000004024010B52C4BA3
:101710001B6883432A4C2360231D1B688343241DBD
:101720002360231D1B688343241D2360231D1B6826
:101730008343241D236011B101290ED105E0204B04
:101740001B6803431E4C236008E01D4B1B1D1B68D8
:1017500003431B4C241D236000E000BF00BF22B1E7
:10176000012A0FD0022A27D119E0154B08331B6834
:101770000343134C08342360231D1B688343241D3B
:1017800023601AE00E4B08331B6883430C4C08346B
:101790002360231D1B680343241D23600DE0084BB9
:1017A00008331B680343064C08342360231D1B6861
:1017B0000343241D236000E000BF00BF10BD0000F4
:1017C0000004014001490860704700001404014012
:1017D00001460748006800EA01020548143800681D
:1017E00000EA010312B10BB1012070470020FCE7B1
:1017F0001404014070B504460D46E1B2054800F0FE
:1018000010FD00BF0721034800F05DFD0028F9D05E
:10181000204670BD003801400AB1016100E041611D
:101820007047000010B500228B071C0F0F2303FA2E
:1018300004F204290EDA204B9B6893431E4CA360EC
:1018400023469B688C07240F00FA04F423431A4CA8
:10185000A3602FE008290EDA174BDB689343164C80
:10186000E3602346DB688C07240F00FA04F423436B
:10187000114CE3601EE00C290EDA0F4B1B699343F9
:101880000D4C236123461B698C07240F00FA04F4D6
:101890002343094C23610DE0074B5B699343064CDE
:1018A000636123465B698C07240F00FA04F4234329
:1018B000014C636110BD000000000140F0B504461A
:1018C00016460025002201F00F0501F0100747B170
:1018D000042E05D145F00305E76B1F43E76300E0E5
:1018E000354300201EE0012787401F40C7B1226812
:1018F0004FEA800C0F2707FA0CF7BA43870005FA66
:1019000007F73A43282904D1012787401F40676120
:1019100005E0482903D1012787401F402761226045
:10192000471CB8B20828DED3082022E001278740F0
:101930001F40E7B16268A0F108074FEA870C0F2744
:1019400007FA0CF7BA43A0F10807BF0005FA07F73A
:101950003A43282904D1012787401F40676105E0E9
:10196000482903D1012787401F4027616260471C37
:10197000B8B21028DAD3F0BD02469068084008B12A
:10198000012070470020FCE700F022FA00F0F0FC94
:1019900004A0FEF76DFC01F0F1F801E001F0D4F8CD
:1019A000FCE70000466C6173684C696768742055F9
:1019B0005341525430210A002DE9F04103460D46AF
:1019C000164600240027A0462A48006800F4E0607C
:1019D000B0F5E06F03D100BF4FF0040830E02548B8
:1019E000006800F4E060B0F5C06F03D101274FF04C
:1019F000030825E01F48006800F4E060B0F5A06F20
:101A000002D10227B8461BE01A48006800F4E060E3
:101A1000B0F5806F03D103274FF0010810E015489F
:101A2000006800F4E060B0F5407F03D104274FF078
:101A3000000805E04FF4A06000F020F80227B84647
:101A4000C7F1040005FA00F4C8F104010F20C840F2
:101A50003040044324010848C45403F01F0101200E
:101A600088405911890001F1E021C1F80001BDE869
:101A7000F08100000CED00E000E400E002490143C9
:101A8000024A1160704700000000FA050CED00E00A
:101A9000184B5968184B1940164BDA6A22F000525D
:101AA0000C2820D2DFE800F0060708091F0C1F0DE4
:101AB0001516171800BF00BF00BF41EA803113E0C0
:101AC00000BF20F004004FF0805343EA80331943F5
:101AD0000AE000BF00BF00BF20F00C0041EA8031E7
:101AE00042F0005200E000BF00BF024B5960DA62D2
:101AF0007047000000100240FF3FFFEF2DE9F04F5C
:101B00008CB0074600200A904AA090E8004CC068BC
:101B1000CDE905BECDF810A007900FF21C1ADAE946
:101B2000000ACDE9020A0FF2101ADAE9000ACDE93B
:101B3000000A44484068C0F381000B900B9820B124
:101B4000012804D002283FD103E03F4A3EE03E4A4C
:101B50003CE03C48406800F4803CBCF5803F12D13A
:101B60003848C06A00F08048B8F1000F01D1364B08
:101B700000E0364B3348406800F40039B9F5003FC7
:101B800002D15B0800E0324B2E484068C0F383412D
:101B90002C48406800F0006008B141F0100129486D
:101BA000406800F0804008B141F020010F2901D2C7
:101BB000891C06E00F2903D33E2901D8491C00E007
:101BC0003F2103FB01F201E01F4A00BF00BF1D4897
:101BD0004068C0F3031504A8465D22FA06F41948CC
:101BE0004068C0F3022502A8465D24FA06F0099079
:101BF00014484068C0F3C2251DF8056024FA06F0B9
:101C0000089037B1012F06D0022F06D0032F0AD13A
:101C100006E00A9208E00A9406E009980A9003E0B8
:101C200008980A9000E000BF00BF0A980CB0BDE819
:101C3000F08F00000000000000000000010203041B
:101C4000060708090010024000127A00006CDC024E
:101C500000093D00064A02EB9011096800F01F03DD
:101C600001229A401143024B03EB9012116070471E
:101C700000100240064A02EB9011096800F01F03B1
:101C800001229A409143024B03EB9012116070477E
:101C900000100240064A02EB9011096800F01F0391
:101CA00001229A401143024B03EB901211607047DE
:101CB00000100240002000213F4A126842F48032A6
:101CC0003D4B1A6000BF401C3B4A126802F40031D1
:101CD00019B94FF6FF729042F5D1374A126802F4F3
:101CE00000320AB900BFFEE7334AD26942F080529F
:101CF000314BDA61314A126842F440422F4B1A608C
:101D00002D4A52682C4B5A601A4652685A601A463D
:101D1000526842F480625A601A46526822F4403295
:101D20005A601A46526842F440325A601A46526863
:101D3000234B1A40204B5A601A465268214B1A43D3
:101D40001D4B5A601A46126842F080721A6000BF3A
:101D5000194A126802F00072002AF9D0174A126874
:101D600042F48032154B1A6000BF144A526802F4E4
:101D70008032002AF9D0114A126842F400320F4B27
:101D80001A6000BF0D4A526802F40032002AF9D0EE
:101D9000094A526822F00302074B5A601A465268F9
:101DA00042F002025A6000BF034A526802F0080281
:101DB000002AF9D070470000001002400070004077
:101DC000FFFFC3B70000340810B5FFF773FF10BD65
:101DD00010B5124800684FF47A71B0FBF1F4601E40
:101DE000B0F1807F01D301200FE0601E4FF0E021B1
:101DF00048610F214FF0FF30FFF756F900204FF0F8
:101E0000E021886107200861002008B100BFFEE7DB
:101E10000021481EFFF748F910BD0000980100207E
:101E200010B531B101293FD002297DD003297CD1E1
:101E3000BFE0036A23F001030362836923F0030315
:101E40008361036A148823430362036A23F0020355
:101E50000362036A9488234303626A4B984202D068
:101E6000694B98421FD1036A23F004030362036A9B
:101E7000548823430362036A23F008030362036A5E
:101E8000D48823430362436823F480734360436828
:101E9000148923434360436823F400734360436819
:101EA000548923434360ABE0036A23F010030362C9
:101EB000836923F440738361036A148843EA04133B
:101EC0000362036A23F020030362036A948843EAEF
:101ED000041303624B4B984202D04B4B984226D1DD
:101EE000036A23F040030362036A548843EA04133D
:101EF0000362036A23F080030362036AD48843EA1F
:101F000004130362436823F48063436043681489C5
:101F100043EA84034360436823F4006343604368F7
:101F2000548943EA840301E002E068E0436067E02B
:101F3000036A23F480730362C36923F00303C3615C
:101F4000036A148843EA04230362036A23F40073D8
:101F50000362036A948843EA04230362294B98428C
:101F600002D0294B984223D1036A23F48063036291
:101F7000036A548843EA04230362036A23F4006378
:101F80000362036AD48843EA04230362436823F4A8
:101F9000805343604368148943EA041343604368F1
:101FA00023F4005343604368548943EA04134360B5
:101FB00026E0036A23F480530362C36923F4407369
:101FC000C361036A148843EA04330362036A23F497
:101FD00000530362036A948843EA04330362094BA3
:101FE000984202D0084B984208D1436823F48043BA
:101FF00043604368148943EA8413436000E000BFF0
:1020000000BF10BD002C01400034014031B1012956
:102010000CD0022913D0032922D118E0836923F0C0
:10202000700383618369134383611AE0836923F436
:10203000E0438361836943EA0223836111E0C3695A
:1020400023F07003C361C3691343C36109E0C3692B
:1020500023F4E043C361C36943EA0223C36100E0A0
:1020600000BF00BF704731B1012906D0022906D058
:10207000032908D105E0426306E0826304E0C263FD
:1020800002E0026400E000BF00BF704731B10129E7
:102090000CD0022913D0032922D118E0836923F040
:1020A000080383618369134383611AE0836923F41E
:1020B00000638361836943EA0223836111E0C3699A
:1020C00023F00803C361C3691343C36109E0C36913
:1020D00023F40063C361C36943EA0223C36100E0E0
:1020E00000BF00BF7047016841F001010160704707
:1020F0000A8882621D4A90420ED0B0F1804F0BD008
:102100001B4A904208D01B4A904205D01A4A90427E
:1021100002D01A4A90420BD1026822F0700202608B
:1021200002684B881A43026002688B881A43026077
:102130008A68C262124A90420AD0124A904207D07C
:10214000026822F4407202600268CB881A4302607F
:10215000064A904202D0094A904201D10A7B0263AA
:10216000426942F00102426170470000002C0140C8
:102170000004004000080040000C00400034014012
:1021800000100040001400402DE9F04704460D46C1
:102190000027B846B94600261D49601A8C421CD05B
:1021A00006DC1C48204470B1B0F5806F1FD10FE0F1
:1021B000B0F5806F16D0B0F56C4F18D10320FFF743
:1021C0009DFC074614E00220FFF798FC07460FE04D
:1021D0000220FFF793FC07460AE00220FFF78EFC7F
:1021E000074605E00220FFF789FC074600E000BF34
:1021F00000BF07EB5500B0FBF5F64FF6F07006EAAE
:10220000000806F00F0948EA0900A060BDE8F08761
:10221000004C004000BCFFBF01464868C0F3080006
:102220007047C1F3080242607047000010B50446D1
:102230002049601A8C4228D006DC1F48204490B107
:10224000B0F5806F33D117E0B0F5806F26D0B0F5D0
:102250006C4F2CD140F20E30FFF71CFD40F20E30D7
:10226000FFF708FD24E040F21140FFF713FD40F2B4
:102270001140FFF7FFFC1BE040F21240FFF70AFDA0
:1022800040F21240FFF7F6FC12E040F21340FFF775
:1022900001FD40F21340FFF7EDFC09E040F214406D
:1022A000FFF7F8FC40F21440FFF7E4FC00E000BF49
:1022B00000BF10BD004C004000BCFFBFC16841F42E
:1022C0000051C160704710B5024602EB91100068E2
:1022D00001F01F040123A340184008B1012010BDE4
:1022E0000020FCE710B500EB9112126801F01F040A
:1022F0000123A3409A4300EB91131A6010BD10B55F
:1023000000EB9112126801F01F040123A3401A434D
:1023100000EB91131A6010BD70B502460023002433
:10232000C1F38910105801F01F060125B54000EADD
:10233000050302EB91500068C1F304460125B54046
:1023400000EA050414B10BB1012070BD0020FCE7C8
:102350000A460021C16821F004011143C1607047A1
:102360000A460021C16821F008011143C16070478D
:1023700010B58EB00021F74880F8581040F2036085
:10238000FFF768FC40F20260FFF764FC08230322B9
:102390001021F148FFF792FA4FF400430322102175
:1023A000EE48FFF78BFA0021012000F0F9F9002137
:1023B000022000F0F5F900242CE0E94931F814007E
:1023C000FFF748FC4FF4C060FFF744FCE54951F8C3
:1023D0002430E54951F8240003220421FFF76EFA66
:1023E000E249085D00220221FFF7E6FAE04A115DAA
:1023F000E04A105DFFF716FADF4951F82400002289
:102400001146FFF783F9DC4951F82400FFF7DAF9A8
:10241000601CC4B20F2CD0DB002211462520FFF730
:10242000CBFA40F20260FFF715FC40F20E60FFF7B6
:1024300011FC4FF4007303221821C848FFF73EFA3D
:102440004FF4806303220421C448FFF737FACB48D6
:10245000FFF7ECFE4FF4E131C848FFF795FE042189
:10246000C648FFF775FF0821C448FFF779FFC34846
:10247000FFF724FF40F20260FFF7ECFB40F211701F
:10248000FFF7E8FB042303221821B448FFF716FAEC
:10249000082303220421B148FFF710FAB848FFF7D8
:1024A000C5FE4FF4E131B648FFF76EFE0421B44893
:1024B000FFF74EFF0821B248FFF752FFB048FFF781
:1024C000FDFE40F20360FFF7C5FB40F21270FFF71C
:1024D000C1FB4FF48063032218219F48FFF7EEF9F8
:1024E0004FF40063032204219B48FFF7E7F9A54856
:1024F000FFF79CFE4FF4E131A248FFF745FE0421AF
:10250000A048FFF725FF08219E48FFF729FF9D48B7
:10251000FFF7D4FE40F20460FFF79CFB40F213701B
:10252000FFF798FB4FF48063032218219648FFF7CA
:10253000C5F94FF40063032204219348FFF7BEF965
:102540009248FFF773FE4FF4E1319048FFF71CFE0D
:1025500004218E48FFF7FCFE08218C48FFF700FF9E
:102560008A48FFF7ABFE40F20460FFF773FB40F2CE
:102570000560FFF76FFB40F21470FFF76BFB4FF441
:102580008053032218218048FFF798F94FF48053B5
:10259000032204217E48FFF791F97E48FFF746FEAB
:1025A0004FF4E1317B48FFF7EFFD04217948FFF755
:1025B000CFFE08217748FFF7D3FE7648FFF77EFE6F
:1025C00040F20260FFF746FB40F20960FFF742FB72
:1025D0004FF4A060FFF73EFB4FF4E060FFF73AFBDB
:1025E0000120FFF755FA0F23042200216648FFF768
:1025F00065F942F2CF00ADF81C000020ADF81E00D6
:10260000ADF8200042F20F7009900020ADF82200D2
:102610008DF8280007A94FF08040FFF769FD0020E2
:10262000ADF830000120ADF82C000BAA0121800785
:10263000FFF7F6FB40F69F7201218807FFF713FDB5
:10264000702201218807FFF7E1FC002201218807A1
:10265000FFF71CFD00215048FEF77CFF4F4800901B
:1026600000208DF818003B48EC30029001208DF8D6
:102670001900400201908000039000208DF81A009C
:1026800004200490C00205906A4600214248FEF7EB
:1026900099FF00214048FEF744FF00213E48FEF725
:1026A00027FF012211023D484C38FEF7DDFE0022D3
:1026B00002213A484C38FEF7D7FE4FF4C0220121E0
:1026C00036484C38FEF754FE002134484C38FEF7AB
:1026D00017FE4FF4C020FEF763FE042201212F48AD
:1026E0004C38FEF7EAFD05230A2211462B484C38E8
:1026F000FEF764FE05230B22114628484C38FEF7EE
:102700005DFE05230C22114624484C38FEF756FE88
:1027100005230D22114621484C38FEF74FFE0122B9
:1027200011461E484C38FEF704FE1C484C38FEF794
:10273000F7FD0120FEF7C6FE18484C38FEF7A8FD4D
:1027400016484C38FEF7E7FD4FF08040FFF7CBFC12
:102750000EB010BDA8010020000C0140000801408F
:102760007C0000204000002004000020F600002033
:10277000E7000020D80000209C0000200038014025
:10278000004400400048004000100140004C004060
:102790000014014000500040000002404C24014061
:1027A000012802D0022817D10AE0012903D108220A
:1027B0000B4B1A6003E00822094B1B1F1A600CE048
:1027C000012903D1CA03074B1A6004E04FF4004209
:1027D000044B1B1F1A6000E000BF00BF70470000E1
:1027E000140C01401408014070B50446012C02D0BD
:1027F000022C1CD10CE008210E48FFF7BDF8C0F1F7
:102800000100C5B22A4608210A48FFF705F80FE083
:102810004FF400410848FFF7AFF8C0F10100C5B21E
:102820002A464FF400410448FEF7F6FF00E000BFDF
:1028300000BF70BD000C014000080140704700005F
:1028400010B50024A6E00F2C77D2DFE804F00812C0
:102850001C26303A444E58626C77818B95004F4865
:10286000807828B14EA0FDF703FD00204B49887009
:102870008DE04A48C07828B14DA0FDF7F9FC002151
:102880004648C17083E04548007928B14CA0FDF767
:10289000EFFC00214148017179E04048407928B1BE
:1028A00049A0FDF7E5FC00213C4841716FE03B4841
:1028B000807928B147A0FDF7DBFC00213748817102
:1028C00065E03648C07928B145A0FDF7D1FC00216C
:1028D0003248C1715BE03148007A28B143A0FDF76E
:1028E000C7FC00212D48017251E02C48407A28B1E4
:1028F00041A0FDF7BDFC00212848417247E0274870
:10290000807A28B141A0FDF7B3FC002123488172F1
:102910003DE02248C07A28B141A0FDF7A9FC002182
:102920001E48C17233E01D48007B28B141A0FDF76D
:102930009FFC00211948017329E027E01748407BDC
:1029400028B141A0FDF794FC0021144841731EE01A
:102950001248807B28B13FA0FDF78AFC00210F4878
:10296000817314E00D48C07B28B13DA0FDF780FCC9
:1029700000210A48C1730AE00848007C28B13CA045
:10298000FDF776FC00210548017400E000BF00BFA0
:10299000601CC4B20F2CFFF656AF10BDA80100207A
:1029A0004B45595F4441595F4E494748540A00001E
:1029B0004B45595F434F4E5F464C4153480A000018
:1029C0004B45595F55500A004B45595F444F574E90
:1029D0000A0000004B45595F4C4546540A00000070
:1029E0004B45595F52494748540A00004B45595FCF
:1029F0005345540A000000004B45595F4C41534574
:102A0000525F4D4F4445310A000000004B45595F6D
:102A10004C415345525F4D4F4445320A000000007F
:102A20004B45595F4C415345525F4D4F4445330A26
:102A3000000000004B45595F4C415345525F4D4FDC
:102A40004445340A000000004B45595F464C5F4145
:102A500044440A004B45595F464C5F5355420A00B7
:102A60004B45595F53484F545F5357310A0000009C
:102A70004B45595F53484F545F5357320A0000008B
:102A800010B50120FFF7B0FE0220FFF7ADFE10BD2C
:102A900010B50C48D0F8EC100BA0FDF7E9FB094885
:102AA000D0F8F01010A0FDF7E3FB0648D0F8F410C2
:102AB00015A0FDF7DDFB0348D0F8F8101AA0FDF7CC
:102AC000D7FB10BDA80100200A20414443303A2022
:102AD0005043302C206164635B305D203D20253005
:102AE0003858200A000000000A20414443303A20B0
:102AF0005043312C206164635B315D203D202530E3
:102B00003858200A000000000A20414443303A208F
:102B10005043322C206164635B325D203D202530C0
:102B20003858200A000000000A20414443303A206F
:102B30005043332C206164635B335D203D2025309E
:102B40003858200A0000000010B5002410E00A48A0
:102B500000EB0410007848B1074901EB0411C86884
:102B600080470120044901EB04110870601CC4B2C5
:102B7000092CECDB10BD000008010020002006E05D
:102B80000121044A02EB00121170411CC8B209284D
:102B9000F6DB7047080100207047704710B53348D6
:102BA00090F8580006285ED2DFE800F0030C2E40B3
:102BB0004A562E4890F8590018B101212B4880F848
:102BC000581051E02AA231A128481230FDF75CFBD1
:102BD0001F21264880F83210002180F83310202170
:102BE0003430FDF77DFC2021204880F8541000216E
:102BF000A0F8561040F207312548FFF780FB02216C
:102C00001A4880F858102FE0184890F8331090F8C0
:102C10003200814209D106211D48FFF754FB0128EB
:102C200003D10321114880F858101DE040F205310E
:102C30001748FFF764FB04210C4880F8581013E094
:102C40000A48B0F8561090F85400814203D105218B
:102C5000064880F8581007E00021044880F8581012
:102C600080F8591000E000BF00BF10BDA80100208F
:102C70000A0D55534152543020696E746572727555
:102C8000707420746573740A0D00000025730000D1
:102C90000038014010B5334890F8A00006285ED2F5
:102CA000DFE800F0030C2E404A562E4890F8A100B1
:102CB00018B101212B4880F8A01051E02AA231A1BF
:102CC00028485A30FDF7E0FA1F21264880F87A108C
:102CD000002180F87B1020217C30FDF701FC2021B1
:102CE000204880F89C100021A0F89E1040F2073187
:102CF0002548FFF704FB02211A4880F8A0102FE0B6
:102D0000184890F87B1090F87A00814209D106218A
:102D10001D48FFF7D8FA012803D10321114880F894
:102D2000A0101DE040F205311748FFF7E8FA042132
:102D30000C4880F8A01013E00A48B0F89E1090F8F4
:102D40009C00814203D10521064880F8A01007E0CD
:102D50000021044880F8A01080F8A11000E000BF16
:102D600000BF10BDA80100200A0D55534152543137
:102D700020696E7465727275707420746573740A5C
:102D80000D000000257300000044004070474FF024
:102D90004070E1EE100A7047303132333435363747
:102DA000383941424344454640305800303132338F
:102DB000343536373839616263646566403078008F
:102DC00004000008000000000000000200010000F4
:102DD000103A7474003A7474003A7474000000007D
:102DE000002E000800000020A80100006C0100086F
:102DF000AC2E0008A8010020580A0000C8010008F5
:102E000051140801401A0C045A1004290C690429B1
:102E10001C29142908A904592C32025A1004322002
:102E200032012914290C424019095A801839055ACF
:102E30000821190C1E0206030604023A03021A02B4
:102E40000A5A02022916492709365C113F0102027B
:102E50000101010F11190B14040405160105060DDB
:102E6000071810080B0908070A0A1706071717287A
:102E700017060472175A3C043B812A4A115A64040B
:102E80004B4128101AF45829045A912069105A3DD0
:102E9000205AC804CB9D2B10CB952C10CB8D2D1018
:0C2EA000DA99302A9B10C40E27070000AE
:0400000508000131BD
:00000001FF
